:020000040800F2
:10640000F83700205D6800086568000867680008C4
:10641000696800086B6800086D68000800000000EB
:106420000000000000000000000000006F6800088D
:1064300071680008000000007368000807E70008A2
:1064400077680008776800087768000877680008B0
:1064500077680008776800085DFA000889FA000884
:106460002DF9000877680008776800087768000849
:106470007768000877680008776800087768000880
:106480007768000877680008776800087768000870
:106490007768000877680008776800087768000860
:1064A0007768000877680008776800087768000850
:1064B0002FFB00087768000855FB00087768000884
:1064C0007768000877680008776800087768000830
:1064D000776800083BE800087768000877680008DC
:1064E000E7E10008776800087768000800F002F824
:1064F00000F04AF80AA090E8000C82448344AAF114
:106500000107DA4501D100F03FF8AFF2090EBAE811
:106510000F0013F0010F18BFFB1A43F001031847D7
:10652000CCA70000ECA700000A4410F8014B14F0BF
:106530000F0508BF10F8015B240908BF10F8014BD4
:106540006D1E05D010F8013B6D1E01F8013BF9D11D
:10655000641E03D0641E01F8015BFBD19142E4D3B9
:10656000704700000023002400250026103A28BFB1
:1065700078C1FBD8520728BF30C148BF0B607047B5
:106580001FB51FBD10B510BD09F0B6FF1146FFF7CE
:10659000F7FF08F0A5F909F0D4FF03B4FFF7F2FF05
:1065A00003BC09F0DBFF000072B6704762B67047AB
:1065B00080F30888704780F310887047EFF31080ED
:1065C00072B67047B0FA80F0704700000CB500203A
:1065D000019000909848006840F480309649086027
:1065E00000BF9548006800F4003000900198401CFE
:1065F0000190009818B90198B0F5A06FF1D18E48BC
:10660000006800F4003010B10120009001E000208B
:1066100000900098012844D18848006840F010009C
:10662000864908600846006820F0030008600846B4
:10663000006840F0020008607F4840687E4948607A
:106640000846406848600846406840F480604860FA
:106650000846406820F47C1048600846406840F4D2
:10666000E81048600846006840F08070086000BF8D
:106670007148006800F000700028F9D06E4840684A
:1066800020F003006C4948600846406840F0020072
:10669000486000BF6848406800F00C000828F9D145
:1066A00059E06648006840F01000644908600846F8
:1066B000006820F0030008600846006840F002000F
:1066C00008605D4840685C4948600846406848602A
:1066D0000846406840F4806048600846006820F43E
:1066E000803008600846006840F00100086000BF84
:1066F0005148006808B9012000E0002000F00200C5
:106700000028F5D14C48406820F480304A49486060
:106710000846406840F4601048600846006840F051
:106720008070086000BF4448006800F000700028D6
:10673000F9D04148406820F003003F4948600846CE
:10674000406840F00200486000BF3B48406800F0ED
:106750000C000828F9D10CBD10B53748006840F08E
:10676000010035490860084640683549084032490B
:10677000486008460068334908402F4908600846C9
:10678000006820F4802008600846406820F4FE007D
:1067900048604FF41F008860FFF718FF2A48006820
:1067A0002A49086010BDF0B50446002500230026E4
:1067B00000222148406800F00C0525B1042D06D0C8
:1067C000082D2BD107E0224A0020087028E0204A3B
:1067D0000120087024E01848406800F4701316483F
:1067E000406800F4803616B10120087001E00020F6
:1067F0000870022000EB93431EB9164803FB00F219
:106800000BE00D48406800F4003018B1114803FB5C
:1068100000F202E00E4803FB00F201E00C4A00BF68
:1068200000BF05484068C0F303100B4F3D5CEA40D1
:1068300022600120F0BD0000001002400020024054
:106840000000FFF8FFFFF6FE9003000808ED00E0EF
:1068500000127A0000093D0000000020094880472E
:1068600009480047FEE7FEE7FEE7FEE7FEE7FEE732
:10687000FEE7FEE7FEE7FEE704480549034A054B4D
:106880007047000059670008ED640008F82B0020ED
:10689000F8370020F82B002030B5884209D0034695
:1068A0000C4604E014F8015B03F8015B521E002A59
:1068B000F8D130BDF0B503468B420DD01D460C46D5
:1068C00008E015F8016B14F8017BBE4201D00120ED
:1068D000F0BD521E002AF4D10020F9E710B503469E
:1068E00002E003F8011B521E002AFAD110BD70B558
:1068F00088420AD203460C4604E014F8015B03F810
:10690000015B521E002AF8D10DE088420BD9831892
:106910008C1806E0651E2C462E785D1E2B462E70C8
:10692000521E002AF6D170BDF0B505460C4616463B
:106930002F46314614E011F801CB387884450DD14B
:10694000012200E0521CA24204D211F801CBB85C33
:106950008445F7D0A24201D1881AF0BD5B1E491CC4
:10696000002BE8D10020F8E770B5044600260E7031
:10697000254610460AE010F8016B05F8016B0E7809
:10698000761C0E70067806B970BD5B1E002BF2D126
:1069900000260E7000BFF7E770B505460C4660781C
:1069A00010B1012824D113E02946A01DD4F80C21F0
:1069B0009047C0B2207000B91FE000206071A0783D
:1069C000012802D1B248007A00E00120E07000BF47
:1069D00062792178A01DD4F80831984720B1E07879
:1069E000401EC0B2E07010B10120607005E000BF31
:1069F00007F081FE0020607000BF00BF70BD10B5C1
:106A0000A449A548FFF7C8FFA449A548FFF7C4FF5C
:106A100010BD2DE9F04104460E4617462546314685
:106A2000284604F0E5FA012805D12878032800D18A
:106A300000E000BF00BF0120BDE8F0810146881ED4
:106A40000C280FD2DFE800F0060E0E0A0E070E0823
:106A50000E0B0E0C00BF00BF0320704700BF00BF2D
:106A60000620FAE700BF00BF0020F6E7F8B50446AD
:106A70000D26607800EB80008A4901EB8000C56834
:106A800000270020009007F053FF6178884262DD04
:106A900000BFA1782868884249D12078022808D010
:106AA0002078042805D02078072802D020780928EB
:106AB00027D1A86818B3607800EB80007A4901EB11
:106AC0004000807920B90926607805F0DAFF2DE0D2
:106AD0000121601C00F0D0FC601CA96888470646B4
:106AE000022E23D12868CF2800D90126E078009013
:106AF0009DF80020211D601DFFF7F9FE16E00A2613
:106B000014E02078052805D020780B2802D02078C2
:106B10000D280AD1E86830B1621D6946601CEB6837
:106B20009847064602E00B2600E00C2612E061784A
:106B300001EB81015B4A02EB810108698047791C06
:106B4000C9B20F46884205DD05F11400054600680C
:106B5000FF289ED900BF9DF80000401CE070267100
:106B60003046F8BD2DE9F84305460F469046AC1D6A
:106B700005F11B0004F11103621C39460090284600
:106B800003F03BFF0646012825D104F11100FFF771
:106B90006DFF0646032E1ED006F006FE607C02281E
:106BA00012D0607C05280FD0607C072802D0607C62
:106BB0000B2801D1012E07D0607C092802D0607C0F
:106BC0000D2808D1012E06D0607CFFF737FF6074D6
:106BD000204603F06DFD0120BDE8F88310B54FF4A9
:106BE00080623249324800F043FF4FF480623149FD
:106BF000294800F03DFF00BF00202F4948708870F1
:106C000008712E48C1F808012D48C1F80C0100BFD9
:106C100000BF00201F4948700120887000200871C3
:106C20002848C1F808012848C1F80C0100BF80229B
:106C30002649274800F01CFF80222649184800F00A
:106C400017FF00BF00202449487088700120087198
:106C50002248C1F808012248C1F80C0100BF00BF5A
:106C600000200E4948700120887008711548C1F84D
:106C700008011B48C1F80C0100BF1A4B0522002176
:106C8000022005F00DF910BD0249C1F80801704756
:106C900058290020B40A002094010020F40D00209F
:106CA000D40B0020080B0108682A0020A401002052
:106CB00084010020A4050020A4090020656B0008C1
:106CC0003F6F0008C7E20008776E0008E40B002061
:106CD000C40B0020640C0020E40C0020136A0008A0
:106CE000096D0008FF69000810B504460622C7496F
:106CF000204600F00BFF10BD10B504460622C44923
:106D0000204600F003FF10BD2DE9F04106460C4679
:106D100000BF04B967E000BF00BF204600F0BEFE20
:106D2000012800D15FE000BF0622B849204600F0EC
:106D30009DFF0546A56000BF204600F0AFFE01287C
:106D400000D150E000BF0725A0682844401E6168BC
:106D5000B0FBF1F201FB12002168085C0830054429
:106D600000BFFA2D00D935E000BF00BF204600F07B
:106D7000BEFEA84200D236E000BF00BFA068284493
:106D8000801F6168B0FBF1F201FB12070623A04AE5
:106D90003946204600F098FF00B91BE000BF00BF55
:106DA0002A463146204600F0E6FE00B91BE000BF4F
:106DB000B57900BFA81C81B2F01D00F02BF900B11D
:106DC00011E000BF2A46F11D3046FFF790FD28462E
:106DD000BDE8F081A068801D6168B0FBF1F201FBA5
:106DE0001200A06000BF0020F2E72DE9F041064646
:106DF0000F46154600BF06B93BE000BF00BF0622A4
:106E00008249304600F082FE00B932E000BFA9B2EC
:106E1000384600F0FFF8044600BFE9B2304600F003
:106E2000E8FE00B925E000BF00BF2A4639463046DB
:106E300000F06CFE00B91CE000BF00BF211230461C
:106E400000F0D7FE00B914E000BF00BFE1B2304649
:106E500000F0CFFE00B90CE000BF00BF06226C4975
:106E6000304600F053FE00B903E000BF0120BDE84A
:106E7000F0810020FBE72DE9F04106460C4600BFFB
:106E800004B95AE000BF00BF204600F030FE0628DB
:106E900000D852E000BF06225C49204600F0E6FE22
:106EA0000546A56000BF204600F0F8FD012800D18E
:106EB00043E000BFA068801D6168B0FBF1F201FBF8
:106EC000120021680D5C00BF012D00D12CE000BF35
:106ED0000C3500BFFA2D00D926E000BF00BF2046C8
:106EE00000F005FEA84200D227E000BF00BFA06866
:106EF0002844801F6168B0FBF1F201FB12070623F2
:106F0000434A3946204600F0DFFE00B90CE000BFDE
:106F100000BF2A463146204600F02DFE00B90CE0A5
:106F200000BF2846BDE8F081A068801D6168B0FB05
:106F3000F1F201FB1200A06000BF0020F2E770B583
:106F400004460E4631462046FFF795FF054665B1DB
:106F5000A01D09F060FA40B9A07E00F11D0560197E
:106F600006222B49FFF798FCAD1D284670BDF0B5F1
:106F7000C1B006460F46144600BF06B944E000BF44
:106F800000BFFA2C00D93FE000BF2246394601A8D5
:106F9000FFF782FCA1B201A800F03CF8054600BF53
:106FA00006221A49304600F0B1FD00B92CE000BFBE
:106FB0002A122046641C01A90A542046641C0D5460
:106FC00000BFE1B201A809F0FEF900B91CE000BF62
:106FD0009DF8044000BFFA2C00D915E000BF00BFA7
:106FE000224601A9304600F091FD00B90CE000BF37
:106FF00000BF06220649304600F088FD00B903E0D4
:1070000000BF012041B0F0BD0020FBE76A05010888
:107010007005010870B503460C46002500260021C6
:107020000DE0585C80EA0502154810F8120080EA6D
:107030000605134830F812000612481C81B2A1421E
:10704000EFDB46EA052070BDF0B504460D4600268C
:1070500000271612D7B200210DE0605C80EA06031B
:10706000074810F8130080EA0706054830F81300B7
:107070000712481C81B2A942EFDB47EA0620F0BDA7
:1070800076050108014604E00A2000E0401E0028C1
:10709000FCD10A1EA1F10101F6D1704710B50446DA
:1070A00005E007F0E3FB40F2E630FFF7EBFF201EC0
:1070B000A4F10104F5D110BD2DE9F04180460E4642
:1070C000154600F0FDF80746BC6850492068884224
:1070D00019D16068B0F1FF3F15D0606898B1606861
:1070E000B0F1443F0FD06068B0F1883F0BD0484901
:1070F0006068884207D0D4E90101C943884202D1BF
:107100006068286002E04FF0FF302860281D06F01C
:1071100044FC102030700120BDE8F08170B586B0CD
:107120000546142101A809F0BDF94FF0FF30009089
:1071300000F0C6F80646B468A878082802DA0F20DE
:1071400006B070BD3149206888421DD16068B0F139
:10715000FF3F19D06068B8B16068B0F1443F13D008
:107160006068B0F1883F0FD02949606888420BD031
:10717000D4E90101C943884206D1D5F803106068FB
:10718000884209D10120DBE72248016807204059E5
:10719000814201D00E20D3E71F48049055F8030F19
:1071A0001E49896841F001011C4A9160194908395A
:1071B000096811601749091F0968116015490968B4
:1071C000116011460860096805911048019028680F
:1071D000029055F80309C043039001AA1421B06836
:1071E00006F01FFB80B1D5F8030000906A46042129
:1071F000442000F09DFB0A4B4FF47A7200210846B0
:1072000004F04EFE01209BE7022099E75A3CC3A5FB
:1072100042455354F0F7FF1FA542BD5A00300240CB
:107220003BE6000810B506F0B4FB84B2402C19D040
:10723000802C17D0B4F5807F14D0B4F5C07F11D066
:10724000B4F5007F0ED0B4F5407F0BD0B4F5806F5D
:1072500008D01D4800684FF00061D1F88013401A33
:10726000C0F38F24B4F5C07F1CD007DC402C0FD0B6
:10727000802C11D0B4F5807F1CD112E0B4F5007FD2
:1072800011D0B4F5407F0FD0B4F5806F12D10CE06F
:107290000E480F49086011E00C4818300C4908608E
:1072A0000CE000BF00BF00BF00BF084830300849F5
:1072B000086003E000200649086000BF00BF10BD61
:1072C0000348006870470000980300087807010829
:1072D000100000202DE9F04104460025002600277B
:1072E00007F026FB2178884202DC0020BDE8F0810F
:1072F000207800EB8000FE4901EB8000C56800BFEC
:1073000061782868884201D12E7C12E0217801EB57
:107310008101F74A02EB810108698047791CC9B2F3
:107320000F46884205DD05F1140005460068FF2878
:10733000E6D900BF3046D9E7EE48006890F800046F
:1073400008B9012070470020FCE710B50446FFF79C
:10735000F3FF012801D1002010BDE648006890F835
:107360000004A0422EDDE348006890F80004401EAF
:10737000A0420FD0DF4A126892F80024521EDD4B63
:107380001B6803EB4211DB4A126802EB4410202217
:10739000FFF782FAD749096891F80014491ED54AC7
:1073A000126802EB411020220021FFF797FAD14822
:1073B000006890F80004401ECE49096881F8000476
:1073C0000120C9E70020C7E72DE9F04105460F4637
:1073D0000024A046002617B1012F48D120E0002448
:1073E00017E0C448006800EB441000782978884210
:1073F0000DD1C048006800EB44104078697888429D
:1074000005D12046FFF7A1FF8046601EC4B2601C74
:10741000C4B2B848006890F80004A042E1DC27E05C
:107420002846FFF757FF064606B3002418E0B14888
:10743000006800EB44100078297888420ED1FF2EB6
:1074400006D0AC48006800EB4410C07FB04205D1C4
:107450002046FFF77AFF8046601EC4B2601CC4B2AB
:10746000A448006890F80004A042E0DC00E000BFFF
:1074700000BF4046BDE8F08170B504460D4607F0F8
:1074800057FA2178884201DC002070BDFFF754FFD5
:10749000012801D10020F8E7207820B129462046B4
:1074A000FFF792FFF1E70020EFE79248006890F8BD
:1074B0000004202801DB012070470020FCE770B5A4
:1074C00004460D46A07FD0B1A07FFF2802D0A07F48
:1074D000401EA07704F11A0004F01EFE6421484308
:1074E0003221B0FBF1F0206104F11C0004F014FE25
:1074F000642148433221B0FBF1F0606105E0287857
:10750000FFF723FF2878401E287070BD2DE9F04159
:1075100004460D260027607800EB8000744901EBDB
:107520008000C56807F004FA617888422BDD00BF4F
:10753000A1782868884212D12078022808D02078C3
:10754000042805D02078072802D02078092805D102
:10755000A86818B1601CA9688847064612E06178DF
:1075600001EB8101624A02EB810108698047791CC5
:10757000C9B20F46884205DD05F1140005460068D2
:10758000FF28D5D900BF3046BDE8F08100B587B0EF
:107590000020069007F06AF9FFF7CEFE012801D11E
:1075A00007B000BD00200690F8E0524800689DF842
:1075B000181000EB41100069B8B14E4800689DF802
:1075C000181000EB41100069401E4A4909689DF8F7
:1075D000182001EB421108610020464909689DF816
:1075E000182001EB42110876D3E0002041490968D8
:1075F0009DF8182001EB421108613E4800689DF893
:10760000181000EB4110007E30BB04208DF8040000
:10761000384800689DF8183000EB43108078C21C91
:107620003448006800EB43110DF10500FFF734F911
:1076300001A8FFF76BFF01202E4909689DF818206B
:1076400001EB4211087600202A4909689DF81820AC
:1076500001EB421148769CE0264909689DF8182004
:1076600001EB4211888B04F0FBFD00287ED02148FD
:1076700000689DF8181000EB41104069B8B11D4832
:1076800000689DF8181000EB41104069401E194930
:1076900009689DF8182001EB421148610020154946
:1076A00009689DF8182001EB4211487671E000202E
:1076B000104909689DF8182001EB421148610D48F6
:1076C00000689DF8181000EB4110407E002860D142
:1076D00004208DF80400074800689DF8181000EB9E
:1076E0004110C07880F001000249096804E0000000
:1076F000080B0108140000209DF8182001EB42112E
:10770000C870694800689DF8183000EB4310807815
:10771000C21C6548006800EB43110DF10500FFF73E
:10772000BBF8614800689DF8181000EB4110C07864
:1077300080F001005C4909689DF8182001EB4211B6
:10774000C87001A8FFF7E2FE0120574909689DF8BB
:10775000182001EB421148760020534909689DF832
:10776000182001EB421108764F4900E008E0096853
:107770009DF8182001EB421006A9FFF7A0FE08E0D3
:10778000494909689DF8182001EB421006A9FFF746
:1077900096FE9DF81800401CC0B206904248006852
:1077A00090F800049DF8181088423FF7FEAE00BF25
:1077B000F6E670B5044600253C48007840B9012043
:1077C0003A4908703A4B32220021022004F068FB4B
:1077D000FFF76BFE002855D1A078C01CC5B201216F
:1077E0002046FFF749FE334991F800142E4A1268EB
:1077F00002EB41102A462146FFF74EF861192D4A47
:1078000092F80024284B1B6803EB421202F11A0085
:107810000522FFF741F8601904F07EFC642148431B
:107820003221B0FBF1F0234991F800141E4A12688E
:1078300002EB41110861A91C601804F06DFC642181
:1078400048433221B0FBF1F01A4991F80014164A6E
:10785000126802EB411148612046FFF73BFD1549D4
:1078600091F80014104A126802EB4111C8770E48D3
:10787000006890F80004401C0B49096881F8000476
:10788000012070BD0020FCE77CB504460D468DF854
:1078900000408DF8015000208DF80200012168465B
:1078A000FFF7EAFD7CBD0000140000201800002056
:1078B0008D750008040F00202DE9F04104460D46A7
:1078C000174628E0B4F5004F03D247F69C70854276
:1078D00002D90020BDE8F08104F03F00C0F1400073
:1078E000A84204D204F03F00C0F1400000E0284666
:1078F0000646F3B2A1B23A46A02005F0C2FE00B996
:107900000BE03444AD1B37444FF0FF31A02005F0AD
:10791000A4FE00B901E0002DD4D100BF0DB90120B3
:10792000D8E700221146104600F07AF80020D1E78F
:107930002DE9F04104460D46174628E0B4F5004F06
:1079400003D247F69C70854202D90020BDE8F08141
:1079500004F03F00C0F14000A84204D204F03F0010
:10796000C0F1400000E028460646F3B2A1B23A4614
:10797000A02005F0B9FE00B90BE03444AD1B37443C
:107980006FF07041A02005F068FE00B901E0002D05
:10799000D4D100BF0DB90120D8E70022114610460E
:1079A00000F03EF80020D1E72DE9F04104460D46F5
:1079B000174627E0B4F5004F03D247F69C70854286
:1079C00002D90020BDE8F08104F03F00C0F1400082
:1079D000A84204D204F03F00C0F1400000E0284675
:1079E0000646F3B2A1B23A46A02005F0ADFE00B9BA
:1079F0000AE03444AD1B6FF07041A02005F02DFE6D
:107A000000B901E0002DD5D100BF0DB90120D9E7A3
:107A100000221146104600F003F80020D2E70000D3
:107A200070B506460C46154626B1012E09D0022E29
:107A300012D109E0022004F0B6FF0C4804F0A2FACB
:107A40000BE006F03BFF08E02DB12B46052200219C
:107A5000084604F025FA00E000BF00BF24B1012C65
:107A600002D0204605F07AF970BD0000ABD70008BF
:107A7000034600BF0BB90020704700BF19605A6071
:107A80000020D86098600120F6E700BF00B9704779
:107A900000BF00218160C16000BFF8E70146D1E965
:107AA0000202904201D1012070470020FCE701460C
:107AB000C868401C4A68B0FBF2F302FB13008A68F6
:107AC000904201D1012070470020FCE70146D1E936
:107AD0000202904204D9D1E90202801A401E704786
:107AE000D1E901021044CA68801A401EF7E7014636
:107AF000D1E90220904205D24A68C86810448A68D9
:107B0000801A7047D1E90220801AFAE72DE9F04186
:107B100004460F46154600BF14B90020BDE8F081A9
:107B200000BF00BF2046FFF7D1FFA84201D20020CE
:107B3000F4E700BFE1686068401AA84203D2E16838
:107B40006068401A00E028460646E2682168881806
:107B500032463946FEF7A0FEAA1BB9192068FEF787
:107B60009BFEE06828446168B0FBF1F201FB120063
:107B7000E0600120D2E72DE9F04104460E461546AB
:107B800000BF14B90020BDE8F08100BF00BF20464F
:107B9000FFF784FF012801D10020F4E700BF00BFF8
:107BA0002046FFF7A4FFA84201D20020EBE700BF68
:107BB000D4E90101401AA84203D2D4E90101401AD4
:107BC00000E028460746A268206881183A463046F9
:107BD000FEF762FEEA1BF0192168FEF75DFEA06861
:107BE00028446168B0FBF1F201FB1200A0600120A3
:107BF000C9E770B504460D4600BF0CB9002070BD42
:107C000000BF00BF2046FFF752FF012801D100202E
:107C1000F5E700BFE16820684554E068401C6168F2
:107C2000B0FBF1F201FB1200E0600120E7E710B5C4
:107C300003460C4600BF0BB9002010BD00BF00BFBB
:107C40001846FFF72BFF012801D10020F5E700BF00
:107C500099681868405C20709868401C5968B0FBAF
:107C6000F1F201FB120098600120E6E7F0B503464F
:107C70000C46154600BF0BB104B10DB90020F0BD94
:107C800000BF9968002212E01868405CA65CB04210
:107C900005D1501C0246A84202D1521E0AE0002221
:107CA000481C5E68B0FBF6F706FB17000146D86873
:107CB0008842E9D100BF58680844801A5E68B0FB6A
:107CC000F6F706FB1700DAE7F0B504460D4600BFED
:107CD000206800B10AB90020F0BD00BF00210EE00D
:107CE00068186668B0FBF6F706FB17002668365C76
:107CF00012F8017BBE4201D00020EDE7491C9942F9
:107D0000EED30120E8E7000010B5044606F0AEFD12
:107D100085480078F2281BD1207A617A4840207289
:107D2000607A217A48406072207A617A48402072F5
:107D30002189606804F039FD01280FD104F045FD68
:107D400060B1F3207849087006F0B8FD012010BD3D
:107D500075480078F32801D10120F8E70020724926
:107D600008701220F3E710B5044606F07FFDE078B6
:107D7000F12802D0F32809D104E0204604F057FC92
:107D8000C0B210BD2046FFF7BFFFFAE70E20F8E7AC
:107D900070B506460C46154606F068FD6248007848
:107DA000F12809D12946204604F0D8FC10B1F22070
:107DB0005D490870012070BD5B480078F22801D150
:107DC0000120F8E70020584908702220F3E72DE948
:107DD000F04780460E461446FFF772FA8146D9F8FE
:107DE00004A0D9F81070D9F8005098F804000228BF
:107DF00015D10B203070F0204B49087002204B4900
:107E00000870B88820802868C4F80200DAF80400F6
:107E1000C4F80600287AA0720120BDE8F08798F81F
:107E2000040001281AD14249DAF80000884201D141
:107E30001F20F2E70B20307001203C490870F02031
:107E400039490870B88820802868C4F80200B868EA
:107E5000C4F80600287AA0720120DEE70E20DCE7D5
:107E600070B504460D46164606F000FDE078F02891
:107E700002D0F2280CD105E0324629462046FFF711
:107E8000A6FF70BD324629462046FFF781FFF8E77E
:107E90000E20F6E710B5044606F0E8FC224800780C
:107EA000F12808D1A278921ED1B2B4F80300621D65
:107EB00004F019FC10BD1C480078F22801D1012003
:107EC000F8E70020184908702220F3E710B50446AF
:107ED000A078012801D00F2010BDE078492802DBEE
:107EE000E0785D2801DD0E20F6E704F0D1FCE178B2
:107EF00088420CD0E07804F092FC08B91220EBE73D
:107F00000C4B4FF448720021084603F0C9FF0120D2
:107F1000E2E770B506460C46154604F0B9FC287039
:107F20000120207070BD00002C0000202D000020DA
:107F3000558778AA39DC00082DE9F04FB5B0044622
:107F40004FF000090025AA46AB46002600203490D9
:107F5000F3480068007833900027C82101A808F092
:107F6000A1FA06F0E5FCE178884219DBA078062842
:107F700016DBA078A22813DC2079012805D020790F
:107F8000022802D0207903280AD1A078A0F10208A3
:107F90004FEAE87008EB90708010A8EB800018B1F1
:107FA0000E2035B0BDE8F08FA078801EC0F38709A1
:107FB000E6782079012855D1D948006800784844EE
:107FC000962801DD1920ECE7002534E0022000EBC3
:107FD0008501E01C50F801B03146584600F0E6FE3D
:107FE00038BB01203490CE480068007800EB800157
:107FF000CB480068401C0844C0F801B0C84800687D
:10800000007800EB8001C6480068401C4654C44814
:1080100000680078401CC2490968087007EB8700B7
:1080200001A90844C0F801B007EB87000E54781C82
:10803000C7B2681CC5B24D45C8DB3498012868D169
:10804000B7480068027801214802FFF7ADFC07EB52
:108050008701339A02EB820202F2012001AAFFF7A4
:1080600067FC56E02079022830D1A0780A2801D098
:108070000F2096E7D4F805B03146584600F096FE3A
:1080800005460DB90E208CE7D4F80910681E00EBE8
:108090008002A3480068401C1044C0F80110681E0C
:1080A00000EB80019E480068401C4654691E01EBAD
:1080B00081039B490968491C5A18691E01EB81011B
:1080C00001F201200521FFF733FC22E0207903288B
:1080D0001FD193480068007808B9012061E74FF08C
:1080E000000A0DE0022000EB8A01E01C50F801B00C
:1080F0003146584600F098FF0AF1010000F0FF0AEF
:10810000CA45EFDB86480068027801214802FFF784
:108110004BFC012045E72DE9F04704460E46154685
:108120004FF000080027B946BA460020307006F02C
:10813000FFFBE178884208DB2079012802D0207912
:10814000022802D1A078042802DD0E20BDE8F087C5
:1081500094F803802079012807D12870404600F068
:1081600076F96870022030701AE02079022817D161
:10817000A1796079081A282801DD0E20E6E794F835
:10818000059094F806A0AB1C52464946404600F0C4
:108190002FF90746022028706F7000EB87003070BF
:1081A0000120D3E770B50446002600BF5D48806813
:1081B00040F001005B4988605B48006808605A48ED
:1081C000001D00680860584808300068086057487B
:1081D0000068086055480C30006808600846006870
:1081E0000646A0783041A070A078062801DA0F205A
:1081F00070BD06F09DFBE178491C3144C9B288424C
:1082000005DB2079012804D02079022801D00E2036
:10821000EEE7D4F80550207901281FD1A078C01FBF
:1082200060726078952809D1E07A202806DAE17832
:1082300004F10902284600F0DDFDD9E760789628B0
:108240000AD1E07A522807DAE17804F109022846D7
:1082500001F056F8C0B2CBE70F20C9E72079022819
:108260000ED1E078FF2802D100F064F808E01DB9D3
:10827000E07800F020FA03E0E178284600F0D9FB2E
:108280000120B5E72DE9F0418EB005460F461446B2
:108290004FF00008002695F80380B8F1180F05DCB0
:1082A0002879012806D02879022803D00E200EB0A4
:1082B000BDE8F0812879012806D1022038704046B7
:1082C00000F0DDF860701EE0287902281BD1697982
:1082D000404600F0ECF80646002E14DD0220207027
:1082E00000206070C6EBC6011148006821300844C8
:1082F000D0F80200C4F80200A11D304601F071FA66
:10830000A079C01D3870002604E0A05D01A9885541
:10831000701CC6B23878B042F7DC0120C7E7000015
:108320001C00002000300240E8F7FF1F3404000862
:108330002000002010B5002240F221714FF4A0600F
:10834000FFF732FB002220214FF44060FFF72CFBA7
:10835000002207214FF44260FFF726FB10BD10B545
:10836000002240F2EF214FF40070FFF71DFB10BD1B
:1083700010B5FE48012102684802FFF79DFAFB484C
:108380000068007800EB8001F8480268521C40F257
:108390000120FFF791FA10BD10B5F54801210268E0
:1083A0004FF4A060FFF788FAF14800680078C0EB4E
:1083B000C001EF480268213240F20150FFF77CFA19
:1083C000EB480268521C20214FF44060FFF774FA1A
:1083D000E748026802F21A7207214FF44260FFF781
:1083E0006BFA10BD10B5FFF7C3FFFFF7D5FF10BD47
:1083F000F0B504460D46164600210022002000BFBD
:108400001EE001EB810CD94F3F687F1C17F80C7000
:10841000A74213D1571CFAB2B2420EDCAA420DDBBE
:1084200001EB810CD14F3F687F1C6744D7F8017086
:1084300043F82070471CF8B200E006E04F1CF9B288
:10844000CA4F3F683F788F42DBDC00BFF0BD10B5FC
:1084500002460020002100BF0BE001EB8104C34B6A
:108460001B685B1C1B5D934201D1431CD8B24B1CA3
:10847000D9B2BE4B1B681B788B42EEDC10BD10B529
:1084800002460020002100BF0BE0C1EBC104B84B45
:108490001B6821331B5D934201D1431CD8B24B1C96
:1084A000D9B2B34B1B681B788B42EEDC10BD30B5E4
:1084B00002460B460021002400BF10E0C1EBC105BD
:1084C000AB4800682130405D904201D1601CC4B2CD
:1084D0009C4202D1481CC0B230BD481CC1B2FF2929
:1084E000ECDB0020F8E7F0B50346002100220BB9D1
:1084F0000020F0BD581EC0EBC0049D48006821302C
:1085000020444178C3EBC3049948006821302044DB
:10851000827997480068007898423FD1D51702EBDE
:108520005575EE10924D2D6805F21A75AD5D144625
:10853000D61702EB5676F610A2EBC6070126BE4010
:10854000B5431046D61702EB5676F710884E3668BC
:1085500006F21A76F555CD1701EB5575EE10844DE0
:108560002D686D1CAD5D0C46CE1701EB5676F610EE
:10857000A1EBC6070126BE40B5430846CE1701EB66
:108580005676F7107A4E3668761CF55578480068AE
:108590000078401E764C246820708AE0D51702EBE4
:1085A0005575EE10724D2D6805F21A75AD5D1446C5
:1085B000D61702EB5676F610A2EBC6070126BE4090
:1085C000B5431046D61702EB5676F710684E36685C
:1085D00006F21A76F555664800680078401EC0EB32
:1085E000C00463480068213020448479581EC0EBE1
:1085F000C0055F480068213028448471CD1701EB25
:108600005575EE105A4D2D686D1CAD5D0C46CE179C
:1086100001EB5676F610A1EBC6070126BE40B54326
:108620000846CE1701EB5676F710514E3668761C89
:10863000F5554F4800680078401EC0EBC0044C4818
:108640000068213020444478581EC0EBC0054848DB
:108650000068213028444470454800680078401E76
:10866000C0EBC0044248006821302044D0F80240EA
:10867000581EC0EBC0053E48006821302844C0F8B1
:1086800002403B4800680078401EC0EBC0043848F8
:1086900000682130045D581EC0EBC00534480068F6
:1086A00021304455324800680078401E304C246820
:1086B000207001201DE72DE9F04105460024142714
:1086C00000BF0FE0C4EBC401294800682130405CC2
:1086D000A84205D1611CC8B2FFF705FF601EC4B2F5
:1086E000601CC4B2224800680078A042EADC20483E
:1086F0000068027801214FF4A060FFF755F91C488B
:108700000268521C20214FF44060FFF711F918480D
:10871000026802F21A7207214FF44260FFF708F96B
:10872000002415E004EB84018900C1EBC10310496A
:10873000096821315A18C4EBC40101EB810140F2F0
:10874000015303EB81008C21FFF7F2F8601CC4B2E7
:10875000074800680078142190FBF1F0A042E1DCAA
:1087600003480068007890FBF1F203E01C00002051
:108770002000002001FB1200E0B1FE4800680078F4
:1087800090FBF1F201FB1200C0EBC00604EB840188
:108790008900C1EBC103F749096821315A18C4EBBC
:1087A000C40101EB810140F2015303EB810031462A
:1087B000FFF7BEF80120BDE8F081014609B90020AD
:1087C0007047ED4800680078884207D1EA480068A1
:1087D0000078401EE84A126810702CE0E6480068F5
:1087E0000078401E00EB8002E3480068401C104403
:1087F000D0F80120481E00EB8003DF480068401CD1
:108800001844C0F80120DC4800680078401E00EBE6
:108810008002D9480068401C825C481E00EB80033F
:10882000D5480068401CC254D34800680078401EF8
:10883000D14A126810700120C2E72DE9F0410546C7
:108840000024142700BF0FE004EB8401CA4800682D
:10885000401C405CA84205D1611CC8B2FFF7ADFFC7
:10886000601EC4B2601CC4B2C34800680078A04255
:10887000EADCC1480068027801214802FFF794F859
:10888000002415E004EB8401890001EB8103BA495F
:108890000968491C5A1804EB840101EB810140F27C
:1088A000012303EB81006421FFF742F8601CC4B28E
:1088B000B14800680078142190FBF1F0A042E1DC9F
:1088C000AD480068007890FBF1F201FB1200E0B1C6
:1088D000A9480068007890FBF1F201FB120000EB60
:1088E000800604EB8401890001EB8103A249096839
:1088F000491C5A1804EB840101EB810140F2012369
:1089000003EB81003146FFF713F80120BDE8F08149
:1089100070B50446E21704EB5272D310954A126800
:1089200002F21A72D25C2146E31704EB5373DB1098
:10893000A4EBC3050123AB409A432046E31704EBA5
:108940005373DD108B4B1B6803F21A735A55651E67
:10895000E91705EB5171CB108649096801F21A71CC
:108960005A18661EF11706EB5171C91001F54260E5
:108970000121FEF7DDFF70BD70B50446C4EBC401F4
:108980007C48006821300844851D287860B32A7827
:10899000382A19DC2A78511ECA1701EB5272D310FB
:1089A000744A126802F21A72D25C2B78581EC317EE
:1089B00000EB5373DB10A0EBC3060123B3401A4056
:1089C00012B12046FFF7A4FF0021C4EBC40269489E
:1089D0000068213010448171C4EBC40101F20750DA
:1089E00000220121FEF7E0FF70BD10B502460B46E4
:1089F000002100BF16E0C1EBC1045E4800682130D1
:108A00002044D0F8020090420AD1C1EBC104594879
:108A100000682130005D984202D1481CC0B210BDF0
:108A2000481CC1B25348006800788842E3DC00204B
:108A3000F5E72DE9F0470746884641463846FFF7F7
:108A4000D4FF064600240025002E7DDD701EC0EBFD
:108A5000C00148480068213008444478701EC0EBCB
:108A6000C0014448006821300844857941480068C5
:108A70000078B04232D13F4800680078401E3D493E
:108A80000968087000213B4800680078C0EBC0020C
:108A90003848006821301044C0F80210354800689A
:108AA0000078C0EBC00233480068213081540022B6
:108AB000304800680078C0EBC0012E4800682130C3
:108AC0000844427000212B4800680078C0EBC002C7
:108AD0002848006821301044817191E025480068E1
:108AE0000078401EC0EBC0012248006821300844D5
:108AF000D0F80210701EC0EBC0021E480068213082
:108B00001044C0F802101B4800680078401EC0EBFB
:108B1000C001184800682130415C701EC0EBC002E3
:108B20001448006821308154124800680078401EC3
:108B3000C0EBC0010F480068213008444178701E26
:108B4000C0EBC0020B4800E0C6E0006821301044D2
:108B50004170084800680078401EC0EBC00105481D
:108B60000068213008448179701EC0EBC0020148C2
:108B7000006803E0200000201C0000202130104489
:108B80008171FE4800680078401EFC490968087041
:108B90000021FA4800680078C0EBC002F74800687E
:108BA00021301044C0F80210F44800680078C0EB8F
:108BB000C002F248006821308154F0480068007813
:108BC000C0EBC002ED480068213010444170EB4812
:108BD00000680078C0EBC002E8480068213010440B
:108BE0008171711EC1EBC103E449096821315A1832
:108BF000711EC1EBC10101F201500721FEF798FE81
:108C0000DE480068027801214FF4A060FEF7CCFE38
:108C1000E21704EB5272D310D84A1268521CD25C8D
:108C20002146E31704EB5373DB10A4EBC30C0123C1
:108C300003FA0CF39A432046E31704EB53734FEA0D
:108C4000E30CCE4B1B685B1C03F80C20A146E1171C
:108C500004EB5171CB10C9490968491CCA5CA24692
:108C6000E11704EB5171C91001F540600121FEF7D5
:108C70009BFEEA1705EB5272D310C04A126802F24B
:108C80001A72D25C2946EB1705EB5373DB10A5EB88
:108C9000C30C012303FA0CF39A432846EB1705EBA8
:108CA00053734FEAE30CB54B1B6803F21A7303F8D6
:108CB0000C20A946E91705EB5171CB10AF490968A3
:108CC000491C5A18AA46E91705EB5171C91001F55C
:108CD00042600121FEF72CFE0120BDE8F08701462D
:108CE000802901DA01207047C02901DA8020FAE7E3
:108CF000C020F8E770B505460C462078411C224696
:108D00002846FEF715FE70BD01464FF448608029E5
:108D100002DA00EBC10014E000F58060A1F18002EE
:108D2000D1B2402902DA00EB01100AE000F58060C0
:108D3000A1F14002D1B2402902DA00EB411000E07B
:108D400000BF70470146082901DA01207047102949
:108D500001DA8020FAE7202901DAC020F6E74FF493
:108D60008070F3E7F0B503464FF6FF741846FFF73F
:108D7000E9FF82B215E0D51702EB5575EE107F4D75
:108D80002D686D1CAD5DD61702EB5676F610A2EB82
:108D9000C6070126BE4035400DB9144603E0501CFD
:108DA00082B2FF2AE7DD00BF2046F0BD10B50246C3
:108DB0000B46002100BF16E001EB810470480068FB
:108DC000401C2044D0F8010090420AD101EB8104FC
:108DD0006B480068401C005D984202D1481CC0B23C
:108DE00010BD481CC1B26648006800788842E3DCC8
:108DF0000020F5E72DE9F84F80468946164649469A
:108E00004046FFF7F2FD054600240027A246002059
:108E1000009045B1681EC0EBC00158480068213081
:108E20000844447801E0012000902746002C42D0FD
:108E30002846FFF7A1FDE3B2D81703EB5070C1102D
:108E40004E480068401C405CE2B2D11702EB517101
:108E5000C910A2EBC10C012101FA0CF1084040B18C
:108E6000E0B2FFF73CFF83463078FFF76BFF8345A6
:108E700021D0E0B2C21700EB5272D3103F4A126801
:108E8000521CD25CE1B2CB1701EB5373DB10A1EBA8
:108E9000C30C012303FA0CF39A43E0B2C31700EBAF
:108EA00053734FEAE30C354B1B685B1C03F80C2033
:108EB0004FF0010A0024002C7ED13078FFF752FFDA
:108EC00004464FF6FF71884225D1BAF1010F1FD138
:108ED000F8B2C21700EB5272D310284A1268521C23
:108EE000D25CF9B2CB1701EB5373DB10A1EBC30CCF
:108EF000012303FA0CF31A43D3B2F8B2C21700EB02
:108F000052724FEAE20C1D4A1268521C02F80C30F1
:108F10001120BDE8F88F0098012835D11748006866
:108F20000078C0EBC0011548006821300844C0F843
:108F30000280124800680078C0EBC0010F4800684A
:108F4000213000F801900D4800680078C0EBC002A5
:108F50000A480068213010444470084800680078CE
:108F6000401C06490968087004480068027801211D
:108F70004FF4A060FEF718FD004803E02000002039
:108F80001C00002000680578E0B2C21700EB5272A6
:108F9000D310FE4A1268521CD25CE1B2CB1701EB2F
:108FA0005373DB10A1EBC30C012303FA0CF31A4338
:108FB000D3B2E0B2C21700E01FE000EB52724FEAFA
:108FC000E20CF24A1268521C02F80C30681EC0EB28
:108FD000C002EE480068213010444470691EC1EBA5
:108FE000C103EA49096821315A18691EC1EBC10160
:108FF00001F201500721FEF79BFC0098012802D0E6
:10900000BAF1010F07D1E1480268521C20214FF448
:109010004060FEF78DFCE0B2FFF776FE83463146F6
:10902000FFF768FE012074E770B505460E46002480
:1090300031462846FFF7BAFE0446002C7DDDD448B1
:1090400000680078A0421ED10021D1480068007855
:10905000401E00EB8002CE480068401C1044C0F85F
:109060000110CB4800680078401E00EB8002C84821
:109070000068401C8154C64800680078401EC449FE
:109080000968087052E0C24800680078401E00EB92
:109090008001BF480068401C0844D0F80110601EE1
:1090A00000EB8002BA480068401C1044C0F8011070
:1090B000B74800680078401E00EB8001B4480068A3
:1090C000401C415C601E00EB8002B1480068401CFF
:1090D00081540021AE4800680078401E00EB8002F9
:1090E000AB480068401C1044C0F80110A848006854
:1090F0000078401E00EB8002A5480068401C8154A7
:10910000A34800680078401EA14909680870611EE4
:1091100001EB81039E490968491C5A18611E01EB45
:10912000810101F201200521FEF702FC9848006848
:10913000027801214802FEF737FC012070BD01468C
:10914000802901DA08207047C02901DA1020FAE7E7
:109150002020F8E72DE9F04104460D4600269CB199
:10916000C4EBC40189480068213008444678304681
:10917000FFF7E5FF07463046FFF7C6FD80462A4663
:109180003946FEF799FB03E000202870BDE8F08126
:109190000120FBE701460A2901DC01207047232951
:1091A00001DC2020FAE7322901DC3020F6E7382004
:1091B000F4E72DE9F041054600262846FFF7EAFFCF
:1091C00084B216E0E21704EB5272D3106F4A1268B1
:1091D00002F21A72D25CE31704EB5373DB10A4EBB8
:1091E000C3070123BB401A400AB9264603E0601CAE
:1091F00084B2382CE6DB00BFF0B2BDE8F081014656
:109200004FF4E450202905DC4A1E02EB820200EBF9
:1092100042001DE000F58070A1F12002D1B240298A
:1092200006DC4A1EC2EBC20202EB820210440FE0CF
:1092300000F50C70A1F11002D1B2082907DC4A1E1A
:1092400002EBC20303EB021200EB420000E000BF9E
:1092500070472DE9F04780460D4695F800900024B0
:1092600000261BE0601C2918284480780844C71C8D
:1092700008EB0601481C05223946FDF70DFB601C72
:1092800028448078C01C2044C4B2701DC6B2A9EB2B
:109290000400821B791D3846FDF729FBA0194845BB
:1092A000E0DB88F800602C70BDE8F08701464FF4E1
:1092B000E450202905DC4A1E02EB820200EB42004A
:1092C0001DE000F58070A1F12002D1B2402906DC3A
:1092D0004A1EC2EBC20202EB820210440FE000F50C
:1092E0000C70A1F11002D1B2082907DC4A1E02EB72
:1092F000C20303EB021200EB420000E000BF704724
:109300002DE9F74F90B0DDE91001FFF76EFB06463F
:1093100000250024A14600200290019000278046ED
:10932000824696B1701EC0EBC0011848006821301B
:1093300008444578701EC0EBC00114480068213015
:10934000084484792F46A0460BE010480068007856
:10935000401C0E49096808704FF001090B4800686D
:10936000067803A81299FFF774FF9DF80C000521F9
:10937000B0FBF1FB59460DF10D0002F099FF0128F9
:109380007ED1002D7DD0701E04E000002000002062
:109390001C000020C0EBC001F748006821300844E1
:1093A0008079041E52D0382C13DCE21704EB527281
:1093B000D310F14A126802F21A72D25CE31704EB7E
:1093C0005373DB10A4EBC30C012303FA0CF31A4014
:1093D0000AB900243AE02046202802DC4FF0000BB6
:1093E0000BE0302802DC4FF0200B06E0382802DCCE
:1093F0004FF0300B01E04FF0380B9DF80C00FFF7F9
:10940000C9FE834522D001200290E21704EB52727C
:10941000D310D94A126802F21A72D25C2146E317BD
:1094200004EB5373DB10A4EBC30C012303FA0CF31E
:109430009A432046E31704EB53734FEAE30CCE4BF9
:109440001B6803F21A7303F80C200024E81705EBDD
:109450005070C110C8480068401C405CE91705EB1B
:109460005171C910A5EBC10C012101FA0CF10840A2
:1094700060B12846FFF733FC83461299087801E073
:1094800072E125E0FFF75EFC834521D001200190C9
:109490002846EA1705EB5272D310B74A1268521CDD
:1094A000D25C2946EB1705EB5373DB10A5EBC30C1D
:1094B000012303FA0CF31A43D3B2EA1705EB5272F5
:1094C0004FEAE20CAC4A1268521C02F80C3000253C
:1094D000D4BB9DF80C00FFF76CFE041E35D1B9F12A
:1094E000010F06D1A44800680078401EA24909680F
:1094F00008700298012823D140464FEAE87208EB31
:109500005272D3109C4A126802F21A72D25C41461F
:109510004FEAE87308EB5373DB10A8EBC30C01238D
:1095200003FA0CF31A43D3B24FEAE87208EB527213
:109530004FEAE20C904A126802F21A7202F80C30FA
:10954000112013B0BDE8F08F01E04AF0010AA5BB7D
:1095500012990878FFF706FCC0B2051E2ED1B9F1AA
:10956000010F06D1844800680078401E82490968CE
:109570000870019801281ED13846FA1707EB52727D
:10958000D3107D4A1268521CD25C3946FB1707EB98
:109590005373DB10A7EBC30C012303FA0CF31A433C
:1095A000D3B2FA1707EB52724FEAE20C724A126812
:1095B000521C02F80C301120C3E701E04AF0020A05
:1095C000BAF1010F40D0BAF1020F03D0BAF1030F84
:1095D0007DD100BF2846EA1705EB5272D310664AC8
:1095E0001268521CD25C2946EB1705EB5373DB1053
:1095F000A5EBC30C012303FA0CF31A43D3B2EA1709
:1096000005EB52724FEAE20C5B4A1268521C02F8F8
:109610000C30701EC0EBC001574800682130084470
:109620004570711EC1EBC102534910980968213180
:109630001144C1F80200711EC1EBC1024E491198DC
:1096400009682131885400BFBAF1010F02D0BAF184
:10965000030F3AD12046E21704EB5272D310464A68
:10966000126802F21A72D25C2146E31704EB5373BC
:10967000DB10A4EBC30C012303FA0CF31A43D3B29F
:10968000E21704EB52724FEAE20C3B4A126802F214
:109690001A7202F80C30701EC0EBC0013648006828
:1096A000213008448471711EC1EBC1023249109807
:1096B000096821311144C1F80200711EC1EBC102D9
:1096C0002D491198096821318854711E00E00EE07F
:1096D000C1EBC1032849096821315A18711EC1EB39
:1096E000C10101F201500721FEF722F900E000BF9D
:1096F00000BFB9F1010F07D11F48006802780121AE
:109700004FF4A060FEF750F90198012802D0B9F19A
:10971000010F07D118480268521C20214FF4406005
:10972000FEF706F90298012802D0B9F1010F08D11D
:109730001148026802F21A7207214FF44260FEF7E4
:10974000F7F82046FFF7B2FD83469DF80C100DF1A7
:109750000D02FEF7EDF82846FFF7D6FA8346129978
:10976000FFF7C8FA0120ECE61D20EAE601462029B1
:1097700004DC0A207047000020000020302901DCB2
:109780002320F7E73220F5E72DE9F04780460D4624
:1097900095F80090002400261DE0A019401C4119F6
:1097A000A019401C284480780844C71CA019401CFC
:1097B00028448078C01C2044C4B2A9EB0402394676
:1097C000781DFDF794F808EB060105223846FDF7F1
:1097D00063F8701DC6B2A145DFDCA0192870BDE892
:1097E000F0872DE9F0438DB004460D460027C4EB09
:1097F000C4011A4800682130084447784FB33846FE
:10980000FFF79DFC80463846FFF77EFA81462A46E0
:109810004146FEF751F8C4EBC401104800682130FE
:1098200008448679BEB1382E15DC3046FFF79EFF1E
:1098300080463046FFF7E3FC81466A464146FEF724
:109840003BF829466846FFF79FFF01200DB0BDE8B1
:10985000F083002028700020F8E70000200000209E
:1098600010B5802223492448FEF702F910BD1CB52B
:10987000072269462048FEF77EF958B1DDF803302B
:109880009DF802209DF801109DF8000000F0A6FB55
:1098900001201CBDFFF7E4FF0020FAE72DE9FC41A1
:1098A00005460C4616461F4605EB8500134901EB9D
:1098B0004000807918B9C72C16DDDD2C14DA8DF83C
:1098C00000508DF801408DF80260CDF8037007223A
:1098D00069460948FEF71AF9AFF26D03C822002164
:1098E000032002F0DDFA02E0284603F0CAF8BDE8E2
:1098F000FC810000281D0020181D0020682A00207F
:1099000038B5A520009000BF4FF4105004466A46B9
:109910000121FEF70DF8C14890F8720670B140F2CF
:1099200073620021BD48FCF7D9FF00BF42F201403D
:109930000446BA4A40F27361FDF7FAFF38BD10B52C
:1099400000BF42F201400446B44A40F27361FDF7A1
:10995000B3FF00B910BD00F07AF9B04890F8720674
:1099600008B900F05FF9AD4890F87206322803DDBF
:10997000FFF7C6FF00F056F900BFEBE72DE9F04115
:1099800005460E4600241FE004EB4410A349085C82
:10999000C0B104EB44100844C07C1230C7B204EBE1
:1099A00044100A461044811C3A463046FCF782FFB8
:1099B00040B904EB441099490844407828700120CC
:1099C000BDE8F081601CC4B2944890F87206A042D1
:1099D000DADC0020F4E710B5034601221FE0002185
:1099E0000DE001EB41108D4C205C30B101EB4110DA
:1099F00020444078904200D106E0481CC1B287481C
:109A000090F872068842ECDC00BF844890F8720639
:109A1000884202D11A70012010BD501CC2B2FE2A29
:109A2000DDDB0020F8E7024600210EE001EB4110EB
:109A30007A4B185C38B101EB4110184440789042E1
:109A400001D108467047481CC1B2744890F87206AC
:109A50008842EBDCFF20F5E7704890F87206322868
:109A600001DB012070470020FCE72DE9F0410446AE
:109A70000D46164604EB441068490844C07C123079
:109A8000C7B204EB44100A461044811C3A463046E3
:109A9000FCF702FF2F700120BDE8F0812DE9F047AF
:109AA00004460E4617461D46A5F10209322C3DDC40
:109AB00099F81300123000F0FF0804EB4411574AE4
:109AC0001144881C42462946FCF7E6FE012004EBBF
:109AD0004411524A505404EB441011460844467055
:109AE00000BF42F20140212101FB040A04EB4410B3
:109AF0001146421821215046FDF71AFF9FB14748F1
:109B000090F87206401C454981F8720600BF42F287
:109B100001414348414A801A01EB000A404A0121B1
:109B20005046FDF705FF0120BDE8F0870020FBE768
:109B300070B50446394890F87206401EA0423AD0EB
:109B4000364A92F87226521E02EB4212334BD1185B
:109B500004EB4412D0182122FCF79EFE00BF42F213
:109B60000140212101FB040504EB44102B4942185C
:109B700021212846FDF7DCFE284991F87216491E7E
:109B800001EB4111254A881821220021FCF7A6FE8D
:109B900000BF42F20141214890F87206401E212286
:109BA00002FB001504EB44101C49421821212846F1
:109BB000FDF7BEFE15E004EB4411184A8818212277
:109BC0000021FCF78BFE00BF42F20140212101FB86
:109BD000040504EB44101149421821212846FDF7E1
:109BE000A7FE0E4890F87206002814DD0B4890F886
:109BF0007206401E094981F8720600BF42F2014117
:109C00000748064A801A0D18054A01212846FDF723
:109C10008FFE012070BD0020FCE70000A81D002081
:109C20001A24002010B5A54890F85E0170B140F2EA
:109C30005F120021A148FCF751FE00BF42F601303F
:109C400004469E4A40F25F11FDF772FE10BD10B54A
:109C500000BF42F601300446984A40F25F11FDF71A
:109C60002BFE00B910BD954890F85E01322801DD49
:109C7000FFF7D8FF00BFF5E7024600210EE0C1EB79
:109C8000C1008E4B185C38B1C1EBC100184440785C
:109C9000904201D108467047481CC1B2874890F8ED
:109CA0005E018842EBDCFF20F5E770B5044683488F
:109CB00090F85E01401EA0423AD0804A92F85E21A0
:109CC000521EC2EBC2027D4BD118C4EBC402D018A5
:109CD0000722FCF7E1FD00BF42F60130072101FB3E
:109CE0000405C4EBC4007549421807212846FDF756
:109CF0001FFE724991F85E11491EC1EBC1016F4A06
:109D0000881807220021FCF7E9FD00BF42F6013167
:109D10006A4890F85E01401E072202FB0015C4EB62
:109D2000C4006649421807212846FDF701FE15E0E8
:109D3000C4EBC401614A881807220021FCF7CEFD5C
:109D400000BF42F60130072101FB0405C4EBC4004B
:109D50005A49421807212846FDF7EAFD574890F86E
:109D60005E01002814DD554890F85E01401E5349FD
:109D700081F85E0100BF42F6013151484F4A801A16
:109D80000D184F4A01212846FDF7D2FD012070BD74
:109D90000020FCE72DE9F04104460D4616461F461B
:109DA000322C38DCC4EBC401444A1144881C05221F
:109DB0003946FCF771FD0120C4EBC4013F4A505401
:109DC000C4EBC40011460844457000BF42F60130A0
:109DD000072101FB0408C4EBC40011464218072107
:109DE0004046FDF7A5FD9EB1344890F85E01401C49
:109DF000324981F85E0100BF42F6013130482F4AF6
:109E0000801A01EB00082E4A01214046FDF790FD23
:109E10000120BDE8F0810020FBE770B504460D4647
:109E20001646C4EBC400254A1044811C0522304666
:109E3000FCF732FD05202870012070BDFEB50646F6
:109E40000C460020009001902546E87CC21C05F1DC
:109E50001101C81CFCF74BFD6A4602A93046FFF70A
:109E6000DCFFE97CC91C05F114028818052269464B
:109E7000FCF712FD002068749120A874E87CC01CD7
:109E8000E8740120FEBD2DE9F04104460D4616465A
:109E90001F46FF2C03D1094991F85E1100E02146CD
:109EA00008463B4632462946FFF774FFBDE8F0817D
:109EB00010B504462046FFF7F8FE10BD1B24002015
:109EC0007925002010B5FFF73AFD10BD10B5FFF75A
:109ED00017FD10BD10B50446092C3AD2DFE804F096
:109EE00039050B11171D23293100994201DA012090
:109EF00010BD0020FCE7994201DC0120F8E70020BA
:109F0000F6E7994201DD0120F2E70020F0E79942EF
:109F100001DB0120ECE70020EAE7994201D10120B2
:109F2000E6E70020E4E7994201D00120E0E70020C5
:109F3000DEE7994203DC9A4201DB0120D8E70020EA
:109F4000D6E7994201DC9A4201DA0120D0E70020ED
:109F5000CEE70020CCE70146092916D2DFE801F060
:109F600015090F0D0B05071113000620704705207A
:109F7000FCE70420FAE70120F8E70220F6E70320D7
:109F8000F4E70820F2E70720F0E70020EEE70346B9
:109F9000092B1ED2DFE803F01D05060A0B1D1D0F5D
:109FA000160000BF0868401C086014E000BF086885
:109FB000401E08600FE00868401C08601068401EE2
:109FC000106008E00868401C08601068401E1060BF
:109FD00001E00020704700BF0120FBE72DE9F04FB2
:109FE0008DB006460F4690469A460024C6E004EB24
:109FF00044106749085C01287ED1B8F1010F7CD17B
:10A000004FF0000904EB44100844007A010604EB09
:10A0100044105F4A1044C07901EB004104EB441046
:10A020001044807901EB002004EB4411114449797C
:10A0300000EB010904EB4410114608448078B0425B
:10A040006AD104EB44100844C078B842F8D104EB5C
:10A05000441111440879534600224946FFF73AFF5C
:10A06000002859D004EB441049490844007B0106FC
:10A0700004EB4410464A1044C07A01EB004104EB63
:10A0800044101044807A01EB002004EB4411114489
:10A09000497A00EB0109B9F1000F0FD104EB441329
:10A0A000944663445A1D04EB44136344D97804EB8B
:10A0B00044136344987802F030FD5DE004EB4411F2
:10A0C000334A11444878FFF7D7FD8346FF2824D050
:10A0D00004EB44102E4A8118212203A8FCF7DCFB74
:10A0E00003A95846FFF7AAFE03AD05F11400E97C69
:10A0F000491DC9B2AA7C01E03DE03BE0CDE9002169
:10A10000029095F80EC0E97B0CEB01218AB26B7CC2
:10A11000687B494600F066FB2BE004EB44101C49C9
:10A120000844143004EB4411194A1144C97C04EB6F
:10A130004412174B1A44927CCDE90021029004EBA3
:10A1400044119C46614491F80EC004EB44119E46B4
:10A150007144C97B0CEB01218AB204EB44119C468B
:10A1600061444B7C04EB44116144487B494600F058
:10A1700039FB00E000BF00BF601CC4B2044890F887
:10A180007206A0423FF733AF01200DB0BDE8F08F5B
:10A19000A81D002010B50446012C02D1FFF75CFC7D
:10A1A00010BDFF20FCE770B504460D46012C03D11D
:10A1B0002846FFF738FC70BDFF20FCE730B50346AA
:10A1C0000C46012B18D100210BE001EB4110FB4D97
:10A1D000285C20B101EB4110284440785054481CC1
:10A1E000C1B2F64890F872068842EEDCF34890F867
:10A1F00072062070012030BDFF20FCE72DE9F04100
:10A2000004460D4616461F46012C06D13A463146F5
:10A210002846FFF72AFCBDE8F081FF20FBE72DE987
:10A22000F04104460D4616461F46DDF81880012C05
:10A2300012D1FF2D03D1E14991F8721600E02946B1
:10A24000084643463A463146FFF728FC10B1012044
:10A25000BDE8F0810020FBE7FF20F9E770B5044678
:10A26000012C10D140F273620021D448FCF736FB78
:10A2700000BF42F201400546D04A40F27361FDF74B
:10A2800057FB012070BDFF20FCE770B505460C466A
:10A29000012D07D1322C03DA2046FFF749FC70BDAF
:10A2A0000020FCE7FF20FAE770B504460D4616468D
:10A2B000012C04D131462846FFF760FB70BDFF201A
:10A2C000FCE770B504460D46012C03D12846FFF784
:10A2D00082FB70BDFF20FCE72DE9FC4106460C46E1
:10A2E0000027224601A93046FFF7DEFFF0B93046CD
:10A2F000FFF750FF012802D11320BDE8FC8101A91E
:10A300003046FFF7DEFF012802D10127FF2501E0DB
:10A310001420F2E73B4600949DF80420294630467D
:10A32000FFF77DFF01280CD01020E6E72846FFF755
:10A33000A3FC8046FF2803D04046FFF7B9FDDCE7C9
:10A3400000BFA41E9DF8040020700120D5E72DE970
:10A35000F84F06460C4615464FF00008C146214608
:10A360003046FFF720FF0746FF2801D14FF00109D3
:10A370004B462246394630460095FFF750FF80464F
:10A380002046FFF779FC8246FF2804D05046FFF7AD
:10A390008FFDBDE8F88F4046FBE72DE9FE4381467F
:10A3A0000E4614461F460020009001903146484654
:10A3B000FFF7F9FE8046FF2823D03B462246414660
:10A3C0004846FFF71BFFBD1E3046FFF755FC804691
:10A3D000FF2813D00DF1010202A94046FFF71DFD31
:10A3E0002078801D207001208DF80000EA7C05F1A6
:10A3F0001401501806226946FCF74EFA0120BDE808
:10A40000FE830020FBE72DE9F04107460E46144687
:10A410001D46FF2E07D12A4621463846FFF7CEFEBD
:10A420000120BDE8F08131463846FFF7BCFE2870B8
:10A43000FF2802D001202070F3E70020F1E770B57B
:10A4400005460C46FF2C05D1FFF7ECFB2846FFF72D
:10A4500005FF70BD21462846FFF7A5FE0646FF28EA
:10A4600003D031462846FFF710FF2046FFF704FCD3
:10A470000646FF2803D03046FFF71AFDE9E7012022
:10A48000E7E72DE9FF4180460C46002700200190B8
:10A490000290A61EF17C06F11400405C012811D147
:10A4A000F07C401C06F114028118052201A8FCF77B
:10A4B000F3F9012101A801F0FBFE18B91D2004B039
:10A4C000BDE8F081224603A94046FFF7EDFEE8B95A
:10A4D0004046FFF75FFE012801D11320EFE703A9F3
:10A4E0004046FFF7EEFE012802D10127FF2501E0DB
:10A4F0001420E4E73B4600949DF80C202946404692
:10A50000FFF78DFE012809D01020D8E79DF80C0038
:10A51000FFF7B2FB0546FF2800D1012701AB3A4601
:10A520009DF80C102846FFF7AEFCA41E9DF80C0009
:10A5300020700120C3E72DE9FE4F80460D461646E8
:10A540004FF000090027002001900290B41EE17C2A
:10A5500004F11400405C012810D1E07C401C04F19F
:10A5600014028118052201A8FCF796F9012101A81F
:10A5700001F09EFE10B91D20BDE8FE8F2946404621
:10A58000FFF711FE8246FF2800D101273B462A46ED
:10A59000514640460096FFF742FE81462846FFF7A7
:10A5A0006BFB8246FF2800D1012701AB3A462946C2
:10A5B0005046FFF768FC4846DEE70000A81D002073
:10A5C0002DE9F041054600240026354890F8720632
:10A5D00010B90120BDE8F08127E004EB44103049B8
:10A5E00008448078A8421ED101260A4692F87226B5
:10A5F000521E02EB42120B46D11804EB4412D01843
:10A600002122FCF749F9264890F87206401E244999
:10A6100081F8720604EB44100A4610444178002089
:10A62000FFF70DFF01E0601CC4B21D4890F87206F0
:10A63000A042D2DC46B100BF42F201400746184AB0
:10A6400040F27361FDF774F90120C3E770B5054668
:10A650000E46002400BF1CE004EB441010490844DF
:10A66000C078A84212D104EB44100844D0F8050089
:10A67000B0420BD12046FFF75BFA04EB4410084AC6
:10A68000104441780020FFF7DAFE02E0601CC4B2FB
:10A6900000BF034890F87206A042DDDC012070BDC7
:10A6A000A81D002010B56049012002F072FB10BD0A
:10A6B00010B50446012020705B4809380068C4F8D2
:10A6C0000100594809384168E160D4F8060056494C
:10A6D00009394968884202D0607901280CDD207D63
:10A6E00000F1150221465148FCF741FC20B9002237
:10A6F00003210220FDF794F9D4F806004A490939EC
:10A70000496888420CD0207D00F115022146484856
:10A71000FCF72DFC20B9002202210846FDF780F944
:10A7200010BDF0B5BFB005460E4617466C46102268
:10A730002946601CFCF7B0F83B480938407A401CB9
:10A74000C1B239480938417221740422314604F1FA
:10A750001100FCF7A1F8F27839460DF11500FCF76D
:10A760009BF82046FFF7A4FF3FB0F0BDF0B585B0E1
:10A7700004460D4616461F4601208DF808004FF08E
:10A780008830CDF809000020ADF80D008DF80000EC
:10A790008DF801408DF802508DF803603A46694605
:10A7A00001A8FFF7BEFF05B0F0BDF0B591B00546BA
:10A7B0000E4614461F4601208DF804008DF8055002
:10A7C0008DF806608DF807402246394602A8FCF74E
:10A7D00063F8201DC2B201AB00210846FFF7C6FF97
:10A7E00011B0F0BD2DE9F04786B004460D4616467F
:10A7F0001F46DDE90F9ADDF838808DF80C40CDF862
:10A800000D50ADF8116004208DF804008DF806801D
:10A810008DF805708DF80790524601A902A8FFF740
:10A8200080FF06B0BDE8F087612900208401002088
:10A83000940100202DE9F04106460F46042506E06C
:10A84000681E305CFF2800D003E0681EC5B2002DF2
:10A85000F6DC00BF0024601E38601EE0305DFF287B
:10A8600019D004F065F8804612E0A8F10100C0B2EA
:10A87000804600EB8000FD4901EB4000005D315D4A
:10A88000884205D0012101FA08F138688843386010
:10A89000B8F1000FE9D1601CC4B2AC42DEDB28463F
:10A8A000BDE8F081024600210CE0F0480A30405C2F
:10A8B000535C984204D0505CFF2801D000207047C0
:10A8C000481CC1B20429F0DB0120F8E730B5054689
:10A8D000E748807F012808D12879022805DB681D18
:10A8E000FFF7E0FF08B1012030BD002424E0E0487C
:10A8F0000A3000EB8400006830B1DD480A3000EB1C
:10A9000084000068401C00B914E0D5F80B10D8484A
:10A910000A3000EB84000068814208D0D5F80510A9
:10A92000D3480A3000EB84000068814201D1012045
:10A93000DAE700BF601CC4B2052CD8DB0020D3E7E7
:10A9400030B50246002138E0CA4800EB011000682B
:10A95000D2F80B40A0422ED100230BE0C54800EBFB
:10A9600001100830C05CD47BA04201D1002030BD72
:10A97000581CC3B2052BF1DBBE4800EB0110407B35
:10A98000401CC0B2BB4C04EB01146073052490FB67
:10A99000F4F504FB1500B74C04EB01146073D47B91
:10A9A000B44800EB01100830B24D05EB01156D7B8A
:10A9B00044550120DBE7481CC1B21429C4DBAE4872
:10A9C0000078401CC0B2AC4C2070142490FBF4F50D
:10A9D00004FB1500A84C2070D07BA64CA64D2D780A
:10A9E00004EB05142072D2F80B40A248A24D2D783A
:10A9F00000EB051004600120B9E72DE9FF4FA9B075
:10AA000016461C46369F306899490968884208D026
:10AA100030689A49884204D095480068401C002854
:10AA200076D13046FFF78CFF18B908202DB0BDE86D
:10AA3000F08F3046FFF74AFF38B1E07800F1150299
:10AA40002999891D8E48FCF792FA307901280BD19B
:10AA5000D6F8050086494968884201D00620E5E716
:10AA6000002088490860A6E23079052807D1D6F889
:10AA7000050020B9D6F80B00824908609BE2D6F8A1
:10AA800005002690FCF71CFC25902598D0F8109026
:10AA90000020249000BF7C48806840F001007A4983
:10AAA00088607A48006808607848001D006808607F
:10AAB0007648083000680860754800680860744887
:10AAC0000C3000680860084600682490D6F80B0037
:10AAD0006C49086027A9701DFFF7ACFE28902499E7
:10AAE00027988840279024992898084428902798E8
:10AAF00008B907209AE7307902283ED14FF0000AC2
:10AB0000607830B9A078912803D194F8038011E0DF
:10AB100057E2E2783946F81CFBF7E9FE0322611C94
:10AB20003846FBF7B9FEE078C01C00F0FF080020B3
:10AB30006070A0700020E070012514E0294626987E
:10AB4000FEF734F900280CDD4FF0010AE178C8194E
:10AB500042463946FBF7A0FEE0783D54E078404499
:10AB6000E070681CC5B203F0E3FEA842E6DCBAF16F
:10AB7000000F01D1072059E718E23079032874D17A
:10AB8000D6F8050023904FF0000A0020229083465B
:10AB90008DF8080091208DF8090000208DF80A003A
:10ABA0006070A070E07001257FE029462398FDF7D2
:10ABB0001CFFB0F1000A76DD0020019001202290F8
:10ABC000AAF10100C0EBC0013248006821300844FE
:10ABD000807910B3E278D119AAF10102D0B2FEF760
:10ABE00000FE01900198012830D1E078385C68B30C
:10ABF000E07817F800B0E2783A44511C9DF80A302A
:10AC00000DF10B0298185A46FBF746FE9DF80A0014
:10AC10005844C0B28DF80A0018E0E278D119AAF1C0
:10AC20000102D0B2FEF796FA0190E078385C68B184
:10AC3000E07817F80080E2783A44511CE278D019A5
:10AC40004246FBF754FEE0784044E070019848BB70
:10AC5000E078385C30B3E07817F80080E2783A4466
:10AC6000511CE278D019424617E039E0682A0020EA
:10AC7000582900207C2500202800002042455354FC
:10AC8000940100202400002000300240E8F7FF1F5C
:10AC9000340400082000002005E0FBF728FEE078DF
:10ACA0004044E07000BF681CC5B203F041FEA842FA
:10ACB0003FF77BAF229808B90720B7E69DF80A0056
:10ACC00068B19DF80A10CA1CE178C81902A9FBF7FF
:10ACD000E3FDE1789DF80A00C01C0844E07065E1DE
:10ACE0003079042854D1607888BBE2783946F81C62
:10ACF000FBF7FDFD0322611C3846FBF7CDFDE07834
:10AD0000C01C00F0FF0800206070A070E0700125FA
:10AD100018E00120A8402799084088B1B6F809003A
:10AD2000B9F8041089B288420AD1E178C8194246BC
:10AD30003946FBF7B1FDE0783D54E0784044E070DF
:10AD4000681CC5B203F0F4FDA842E2DC2EE1FFE787
:10AD500003F0EEFD401E6178884201DA0E2065E6C0
:10AD60006178012088402799084078B1B6F8090039
:10AD7000B9F8041089B28842B1D0B9F8040080B2A1
:10AD80001D2803D1B6F809001E28A8D00E204DE6D4
:10AD90003079062834D1E2783946F81CFBF7A7FD54
:10ADA0000322611C3846FBF777FDE078C01C00F0F9
:10ADB000FF0800206070A070E07001251BE00120FA
:10ADC000A84027990840A0B1B6F8090005EB850115
:10ADD0009E4A02EB4101898888420AD1E178C8196C
:10ADE00042463946FBF758FDE0783D54E078404450
:10ADF000E070681CC5B203F09BFDA842DFDCD5E023
:10AE00003079072834D1E2783946F81CFBF76FFD1A
:10AE10000322611C3846FBF73FFDE078C01C00F0C0
:10AE2000FF0800206070A070E07001251BE0012089
:10AE3000A84027990840A0B1B6F8090005EB8501A4
:10AE4000824A02EB4101C97988420AD1E178C819E6
:10AE500042463946FBF720FDE0783D54E078404417
:10AE6000E070681CC5B203F063FDA842DFDC9DE022
:10AE7000307914285CD16078A8BBE2783946F81C98
:10AE8000FBF735FD0322611C3846FBF705FDE07832
:10AE9000C01C00F0FF0800206070A070E070012569
:10AEA0001CE005EB8500694951F81000D6F8051043
:10AEB000884211D1B6F80900B9F8041089B2884265
:10AEC0000AD1E178C81942463946FBF7E5FCE0783B
:10AED0003D54E0784044E070681CC5B203F028FDA2
:10AEE000A842DEDC62E0FFE703F022FD401E61784D
:10AEF000884201DA0E2099E5607800EB8000534922
:10AF000051F81000D6F8051088420FD1B6F80900A4
:10AF1000B9F8041089B2884248D0B9F8040080B268
:10AF20001D2803D1B6F809001E283FD00E207DE56C
:10AF30003079162838D1E2783946F81CFBF7D7FC6F
:10AF40000322611C3846FBF7A7FCE078C01C00F028
:10AF5000FF0800206070A070E07001251FE005EB85
:10AF600085003A4951F81000D6F80510884214D1EE
:10AF7000B6F8090005EB8501344A02EB41018988E6
:10AF800088420AD1E178C81942463946FBF784FC69
:10AF9000E0783D54E0784044E070681CC5B203F0AE
:10AFA000C7FCA842DBDC01E005203FE5E07808B9FA
:10AFB0000D203BE500BFD6F80B00C6F805000120C8
:10AFC00034E5042032E50146032901D10A20704707
:10AFD00000BF00BF0020FAE770B504460D46207898
:10AFE000FFF7F1FFA84201D0002070BD0120FCE76F
:10AFF00070B58EB004460E4601ADD4F80100144978
:10B00000096888421FD131462046FFF7E5FF012835
:10B0100019D1D4F80500C5F80B00607AE873012057
:10B0200028712846FFF78CFC10B908200EB070BDBF
:10B030002846FFF74BFC20B1324621460548FBF776
:10B04000D4FE0120F2E71220F0E70000682A002079
:10B0500058290020D40B002010B5C4B02948447AE8
:10B06000BB208DF81000284800788DF81100264884
:10B070000078401C244908702248007A09788842E8
:10B0800003DAFF208DF81000022404A8B521CDE9D1
:10B09000001402901B480123002201681846FFF7A4
:10B0A000A1FB44B010BD10B5002017490870154829
:10B0B0004289007A811CAFF25F03012000F0F0FEAC
:10B0C00010BD10B5002002F081FC10BD3EB500257A
:10B0D00002F083FC0546002410E00A48007A401C78
:10B0E000C0B2B621CDE90105009106480123002236
:10B0F00001681846FFF776FB601CC4B2022CECDB3B
:10B100003EBD0000BC2600202A00002010B50446E9
:10B110006248007808B1122010BD01205F49087014
:10B12000D4F803005E490860072000594860E07ABF
:10B130000872217B5A4841720D20015B58484181B9
:10B14000584B4FF47A720021084600F0A9FE012006
:10B15000E2E75348006870475148007A7047034659
:10B160000D2008704E48006810604D4840685060DF
:10B170004B48007A10724A48407A507248484089D9
:10B1800050814648007810730120704770B504461E
:10B19000002542480078012801D0122070BD02200D
:10B1A0003E490870D4F803003D4908600720005963
:10B1B0004860E07A0872217B394841720D20015BBA
:10B1C00037484181012002F001FC374B41F28832BF
:10B1D0000021084600F064FE02F0FFFB05463048FF
:10B1E000007A421C00212846FBF778FB0120D5E7B6
:10B1F00003460D2008702A480068106028484068FF
:10B2000050602748007A10722548407A50722448CE
:10B21000408950812148007810730120704710B593
:10B220000446214B41F288320021084600F038FEE6
:10B23000E078FF2812D11948007802280ED11A4868
:10B2400000F0A0FEFFF73DFF184B4FF47A7200218B
:10B25000084600F025FE002010490870012010BDAE
:10B2600070B506460C4615460120207002F0B7FB6B
:10B270002870012070BD10B50446002007490870F1
:10B280000B4800F07FFE012010BD0346012008702E
:10B29000024800781070012070470000290000204B
:10B2A000BC260020A7B00008C3B00008CDB000083D
:10B2B00059B000082820704710B5002001F073FB3A
:10B2C00010BD10B5044601F01BFD01F035FEFEF780
:10B2D000F9FDFDF787F8FEF7C3FAFA4805F0C6F85E
:10B2E000002207210220FCF79BFBAFF233034FF44F
:10B2F0007A720021084600F0D3FD10BD2DE9F05F01
:10B3000083460C4615460026FBF7DAFF0746D7F8BA
:10B3100010A0D7F80080D7F804900020207042F2E7
:10B32000D870217868522078801C20702178DAF853
:10B33000080068502078001D2070E349D9F800000B
:10B34000884201D1C01701E0D9F804002178685083
:10B350002078001D20702178D8F8000068502078EF
:10B36000001D207008F1240605E031782278501C79
:10B370002070A954761C30785A2802DC30783028A6
:10B38000F3DA0120BDE8F09F2DE9F04105460C46B7
:10B390001646FBF795FF8046D8F81070A87850B194
:10B3A000B5F803107868884205D0B5F803004FF669
:10B3B000FF71884210D100202070B8882178705227
:10B3C0002078801C20702178B86870502078001D8B
:10B3D00020700120BDE8F0811220FBE710B5044683
:10B3E000A078042801DCA07808B90F2010BDD4F89B
:10B3F0000300B449091F0860042001F0CAFC08B921
:10B400001020F3E70120F1E70346AE48001F006873
:10B410001060042008700120704770B5044665680C
:10B42000E67815B1B5F1FF3F01D10E2070BD314670
:10B43000284601F0E6FCF9E770B506460C461546CD
:10B4400001F019FD286004202070012070BD034622
:10B450009C48001F4068106004200870012070475D
:10B4600010B50446E078052801DCE07808B90F2023
:10B4700010BDE0789349091F08720831012001F0DE
:10B4800088FC08B91020F3E70120F1E703468D4856
:10B49000001F007A107001200870704770B50546D3
:10B4A000A878192806DCA878052190FBF1F201FBA9
:10B4B000120008B10F2070BDA878052190FBF1F0B3
:10B4C000C6B200240EE004EB8401E81C405C28B105
:10B4D00004EB8401E81C405C052801DD0E20EAE74E
:10B4E000601CC4B2B442EEDB002410E004EB840024
:10B4F000401CE91C0A5804EB8401E81C405C401E17
:10B500007049891D01EB80000260601CC4B2B44226
:10B51000ECDB6C49891D142001F03BFC08B91020BC
:10B52000C9E70120C7E7F0B503460C460025D878E7
:10B53000FF2827D100202070002120E06148801DD5
:10B5400000EB81000068C0B15E48801D00EB810007
:10B550000068401C88B1481C05EB85069055594889
:10B56000801D00EB8100066805EB8507501CC65165
:10B570002078401D2070681CC5B2481CC1B2052946
:10B58000DCDB13E0D87810B1D878052801DD0F2076
:10B59000F0BDD8781070D878401E4A4EB61D06EB24
:10B5A00080000068C2F80100052020700120EFE74C
:10B5B00010B50446E07808B1012000E000204149C0
:10B5C000091F88771E31012001F0E3FB08B9102024
:10B5D00010BD0120FCE703463A48001F807F012888
:10B5E00000D100E00020107001200870704770B595
:10B5F0000446A078052801DCA07808B90F2070BDAA
:10B60000E078C0B9012511E005EB85012F4A60689B
:10B6100042F8110005EB850002EB4001042001F027
:10B62000D8FB08B91020EAE7681CC5B203F080F91E
:10B63000A842E9DC18E003F07BF9E178884201DCFC
:10B640000E20DCE7E17801EB8101204A606842F8D6
:10B650001100E07800EB800002EB4001042001F0D3
:10B66000B8FB08B91020CAE70120C8E72DE9F0416E
:10B6700004460D461646A078032801DCA07810B9D0
:10B680000F20BDE8F081E078A0B9012700202870E4
:10B690000BE007EB87000D4951F810002978705036
:10B6A0002878001D2870781CC7B203F041F9B84211
:10B6B000EFDC16E003F03CF9E178884208DC0E206C
:10B6C000DFE700005C290020558778AA682A00205F
:10B6D000E07800EB8000F74951F81000306004205A
:10B6E00028700120CDE770B50446A078032801DC5E
:10B6F000A07808B90F2070BDE078D0B9012513E01B
:10B70000A08805EB8501EB4A02EB4101888005EB3F
:10B71000850002EB4000011D022001F05AFB08B930
:10B720001020E8E7681CC5B203F002F9A842E7DC84
:10B730001AE003F0FDF8E178884201DC0E20DAE738
:10B74000A088E17801EB8101DA4A02EB41018880AF
:10B75000E07800EB800002EB4000011D022001F0C8
:10B7600038FB08B91020C6E70120C4E72DE9F041F5
:10B7700004460D461646A078032801DCA07810B9CF
:10B780000F20BDE8F081E078A8B9012700202870DB
:10B790000CE007EB8700C74901EB4000808829785F
:10B7A00070522878801C2870781CC7B203F0C0F84B
:10B7B000B842EEDC10E003F0BBF8E178884201DC2F
:10B7C0000E20DEE7E07800EB8000BA4901EB400094
:10B7D00080883080022028700120D2E770B50446AE
:10B7E000A078022801DCA07808B90F2070BDE078AD
:10B7F000D0B9012513E0207905EB8501AD4A02EBB4
:10B800004101C87105EB850002EB4000C11D01201C
:10B8100001F0DFFA08B91020E8E7681CC5B203F0B0
:10B8200087F8A842E7DC1AE003F082F8E178884262
:10B8300001DC0E20DAE72079E17801EB81019D4AF5
:10B8400002EB4101C871E07800EB800002EB4000A0
:10B85000C11D012001F0BDFA08B91020C6E7012082
:10B86000C4E72DE9F04104460D461646A0780228AB
:10B8700001DCA07810B90F20BDE8F081E078A8B90C
:10B880000127002028700CE007EB8700894901EBB5
:10B890004000C079297870542878401C2870781CA2
:10B8A000C7B203F045F8B842EEDC10E003F040F810
:10B8B000E178884201DC0E20DEE7E07800EB8000D2
:10B8C0007C4901EB4000C0793070012028700120D4
:10B8D000D2E770B50446A078032801DCA07808B947
:10B8E0000F2070BDE07808BB01251AE0207905EB38
:10B8F0008501704A02EB41010872607905EB850110
:10B9000002EB4101487205EB850002EB400000F1BB
:10B910000801022001F05DFA08B91020E1E7681C77
:10B92000C5B203F005F8A842E0DC22E003F000F81D
:10B93000E178884201DC0E20D3E72079E17801EB41
:10B9400081015C4A02EB410108726079E17801EB08
:10B95000810102EB41014872E07800EB800002EBCC
:10B96000400000F10801022001F033FA08B910206C
:10B97000B7E70120B5E72DE9F04104460D4616462C
:10B98000A078032802DD0F20BDE8F081E07808B13F
:10B99000A078F0B901270020287015E007EB870098
:10B9A000444901EB4000007A2978705407EB870086
:10B9B000404901EB4000417A2878401C31542878F6
:10B9C000801C2870781CC7B202F0B2FFB842E5DCD8
:10B9D00017E002F0ADFFE178884201DC0E20D3E7EA
:10B9E000E07800EB8000334901EB4000007A3070D2
:10B9F000E07800EB800001EB4000407A707002209C
:10BA000028700120C0E770B50446A078052801DC45
:10BA1000A07808B90F2070BDE078D0B9012513E0F7
:10BA2000207905EB8501234A02EB4101887105EB82
:10BA3000850002EB4000811D012001F0CAF908B920
:10BA40001020E8E7681CC5B202F072FFA842E7DCEC
:10BA50001AE002F06DFFE178884201DC0E20DAE79F
:10BA60002079E17801EB8101124A02EB41018871F2
:10BA7000E07800EB800002EB4000811D012001F026
:10BA8000A8F908B91020C6E70120C4E72DE9F04164
:10BA900004460D461646A078032802DD0F20BDE8B7
:10BAA000F081E07808B1A078C0B9012700202870A3
:10BAB0000FE00000682A002007EB8700B04901EB87
:10BAC00040008079297870542878401C2870781CB0
:10BAD000C7B202F02DFFB842EEDC10E002F028FF02
:10BAE000E178884201DC0E20D9E7E07800EB8000A5
:10BAF000A34901EB400080793070012028700120BB
:10BB0000CDE72DE9F04104460D461746E17820794E
:10BB100001EB002086B26079822802DD0E20BDE8AC
:10BB2000F081B6F5004F01DB1120F8E76079304471
:10BB3000B0F5004F02DD7042287001E06079287096
:10BB400029783A463046FBF7B7FE08B91020E6E7F9
:10BB50000120E4E710B50446A07810B901F0C9F857
:10BB600008E0A078052805D1E1788800221D04218D
:10BB7000FBF7DEFE012010BD70B506460C461546EB
:10BB80002946204601F0FAF8012070BD10B50446A0
:10BB9000A078012801DD0F2010BDA078012805D173
:10BBA000E07818B9022001F08DF81CE0A07818B9EF
:10BBB000012001F087F816E002F0BAFEE178884231
:10BBC0000FDDE07801F021F8E07800F0FFFFE07889
:10BBD000FCF771FDE078FCF730FEE078FEF7F0FC52
:10BBE00001E00E20D8E70120D6E770B50446D4F86E
:10BBF0000360A078042810D102F07AFD4FF47A7126
:10BC00007143B0FBF1F201FB12055E4B2A460021A5
:10BC1000084600F045F9012070BD0F20FCE770B523
:10BC20000446A07808B90F2070BDE078022804D03F
:10BC300003280ED005281FD114E02079611DFEF7DE
:10BC40004BFB0546012D02D1A0700220ECE72846EF
:10BC5000EAE761792079FEF7F2FB012800D1E3E7FA
:10BC60001520E1E761792079A21DFEF770FB01281C
:10BC700000D1D9E71620D7E700BF00BF0E20D3E7D9
:10BC800070B504460D461646E078012802D0042817
:10BC900014D109E06179207933462A46FEF77DFB0D
:10BCA000012800D170BD0AE06179207933462A4627
:10BCB000FEF7A9FB08B10120F4E700E000BF00BFD8
:10BCC0001520EFE770B50446A07808B90F2070BDC5
:10BCD000E078022804D003280ED005281FD114E0F4
:10BCE0002079611DFEF7CDFB0546012D02D1A07024
:10BCF0000220ECE72846EAE761792079FEF79FFB0E
:10BD0000012800D1E3E71520E1E761792079A21D40
:10BD1000FEF711FC012800D1D9E71620D7E700BFB4
:10BD200000BF0E20D3E710B50446A07808B90F2055
:10BD300010BDE07818B90120FEF790FA05E0E07830
:10BD4000FEF73EFC08B91720F2E70120F0E77CB5CA
:10BD500006460D46144600200190FF2000906946DB
:10BD600001A8FAF720FD012808D1019820609DF86C
:10BD7000000020710520287001207CBD1220FCE706
:10BD8000682A00206BCB000810B5032000F00BFEE2
:10BD90001248FAF779FF10BD10B504461048006844
:10BDA000B0F15A3F01D0122010BD0E48D0F8080162
:10BDB0000A4988420BD10C48FAF766FFAFF2370305
:10BDC0004FF496620021084600F06AF804E0034848
:10BDD000FAF75AFF01F072FE0120E5E70FE80008CC
:10BDE00060010020B40A0020C7E200080020C94911
:10BDF0000860704730B503460C4619460AE008460D
:10BE0000491CC44D2D1D05EB0010C068904201D1A6
:10BE1000C8B230BDA142F2D30020FAE77FB5054693
:10BE2000BC4A1288BB4B5B88D118BA4A10882A4694
:10BE3000FFF7E0FF044694B3B6480088201A0128B3
:10BE400024D9601EB34A121D02EB0011102268466D
:10BE5000FAF722FDAF4B1B88E31A1A01AD4B1E887F
:10BE60001B1D03EB06111B1F1B885B1CA94E361DF7
:10BE700006EB0310FAF73BFD311F0A88091D01EBA1
:10BE8000021010226946FAF707FD00BFA14800889A
:10BE9000401CA049088008464088401E48807FBD5D
:10BEA0002DE9F0410746884615461E4600BF9948D1
:10BEB0000088984949880844142802DB0020BDE81E
:10BEC000F08100BF93480088924A52888118324618
:10BED0000020FFF78FFF00BB8E4B5B881A018D4B54
